:020000041000EA
:1000000000B5324B212058609868022188439860DF
:10001000D860186158612E4B002199600221596106
:100020000121F02299502B49196001219960352056
:1000300000F044F80222904214D00621196600F024
:1000400034F8196E01211966002018661A6600F04E
:100050002CF8196E196E196E052000F02FF8012189
:100060000842F9D1002199601B49196000215960AB
:100070001A491B48016001219960EB211966A021F2
:10008000196600F012F800219960164914480160C1
:100090000121996001BC002800D000471248134993
:1000A000086003C880F30888084703B5996A0420EC
:1000B0000142FBD001200142F8D103BD02B5186610
:1000C0001866FFF7F2FF186E186E02BD00000240BE
:1000D000000000180000070000035F00212200005C
:1000E000F4000018222000A00001001008ED00E03C
:1000F00000000000000000000000000074B24E7A12
:1001000000200420F7010010CB010010CD010010E9
:10011000C9010010C9010010C9010010C901001077
:10012000C9010010C9010010C9010010CF01001061
:10013000C9010010C9010010D1010010D301001045
:10014000C1010010C1010010C1010010C101001067
:10015000C1010010C1010010C1010010C101001057
:10016000C1010010C1010010C1010010C101001047
:10017000C1010010C1010010C1010010C101001037
:10018000C1010010C1010010C1010010C101001027
:10019000C1010010C1010010C1010010C101001017
:1001A000C1010010C1010010C1010010C101001007
:1001B000C1010010C1010010C1010010C1010010F7
:1001C000EFF30580103800BE00BE00BE00BE00BECA
:1001D00000BE00BEF2EB8871CC0C0110EC0C0110DB
:1001E0003802001090A31AE71E481F49086006C88D
:1001F00081F3088810471D480068002801D019487D
:10020000F3E70DA40ECC002902D000F012F8F9E7B4
:100210001749184A002000E001C19142FCD116495B
:100220008847164988471649884700BEFDE701C937
:1002300001C29A42FBD37047EC0C0110E000002091
:1002400004280020103401100000042000000420C5
:1002500010340110001004200010042000000000E1
:10026000704700000000000008ED00E0000000D032
:10027000042800200CF4002051360010AD060010B8
:1002800049360010F8B5C0460448054B10B5834206
:1002900003D0044B002B00D0984710BD0428002049
:1002A000042800200000000006480749091A8B10A6
:1002B000C90FC91810B5491003D0044B002B00D04A
:1002C000984710BD042800200428002000000000EA
:1002D00010B5074C2378002B09D1FFF7D5FF054B4C
:1002E000002B02D0044800E000BF0123237010BDA2
:1002F000042B002000000000B8F00010054B10B5E2
:10030000002B03D00449054800E000BFFFF7CCFFF5
:1003100010BDC04600000000082B0020B8F00010FF
:10032000F0B557464E464546DE46E0B5436806689A
:1003300092469A1B921083B0019393009B188846B3
:1003400019015B1819025B1819045B185B009B18F4
:10035000354A0400934264D04146891B894601997D
:100360008E4243D059008B422BD8002300279B4656
:1003700000293ED14B465246FB1823CA23C34B46A5
:100380000C339A464346019ABA44D51A2B0053447B
:1003900001934B46002B1CDC002D04DD2A00414656
:1003A000504603F0FDF8002E1AD1019B27606360D0
:1003B0005B46A36003B0F0BCBB46B246A946A0466C
:1003C000F0BD1A4B9B46584603F0F0F807008344F3
:1003D000D0E74A46310038000DF0CCFD002D0FDC8F
:1003E000A1683000891B03F0E9F8DEE7591C0133EE
:1003F000E7D291420FD84B005B189B009B46E2E787
:1004000041462A00504603F0CBF8A1683000891B12
:1004100003F0D4F8C9E711004B005B189B009B4622
:10042000D1E703480CF06CFAAAAAAA0AF8FFFF7FEA
:10043000B8F00010F0B557464E464546DE46E0B5EA
:100440004368066892469A1B921083B0019353004A
:100450009B18884619015B1819025B1819045B1870
:100460009B009B18364A0400934266D04146891B84
:10047000894601998E4245D059008B422DD80023E0
:1004800000279B46002940D14B465246FB1823CA01
:1004900023C303CA03C34B4614339A464346019A07
:1004A000BA44D51A2B00534401934B46002B1CDC55
:1004B000002D04DD2A004146504603F071F8002E5D
:1004C0001AD1019B276063605B46A36003B0F0BC58
:1004D000BB46B246A946A046F0BD1A4B9B465846BD
:1004E00003F064F807008344CEE74A463100380041
:1004F0000DF040FD002D0FDCA1683000891B03F0DA
:100500005DF8DEE7591C0133E7D291420FD88B002A
:100510005B189B009B46E2E741462A00504603F0E9
:100520003FF8A1683000891B03F048F8C9E71100C3
:100530008B005B189B009B46D1E703480CF0E0F969
:1005400066666606F8FFFF7FB8F00010F0B5CE468D
:10055000474680B5504D87B02B686A68934200D0FB
:100560006B604E4B984642461B685268934201D0DE
:10057000424653603F235026994601AC07E00B00EA
:10058000220083CA83C3013E6B60002E2FD00DF082
:1005900021FB4A46C3179B0EC0181040C01A02F038
:1005A00011FF20600DF016FB4A46C3179B0EC018C2
:1005B0001040C01A02F006FF60600DF00BFB0A212C
:1005C00002F0B2FB080002F0FDFE354902F0ABFE7E
:1005D000344902F0A5FE6968AB68A0609942CED1AB
:1005E00022002800013EFFF79BFE002ECFD12E4BAC
:1005F000994623004A4643CA43C303CA03C343463A
:1006000042465B6891688B4230D01A002000E0C8F7
:10061000E0C2C0C8C0C24246143353604A462000FC
:100620001432E0CAE0C0C0CAC0C0994226D01A0045
:100630002000E0C8E0C2C0C8C0C2424614335360C4
:100640004A4620002832E0CAE0C060CA60C08B423F
:100650001CD01A0023CC23C203CC03C2424614335D
:10066000536007B0C0BCB946B046F0BD220040465A
:10067000FFF7E0FE434699685B68CFE722004046FB
:10068000FFF7D8FE434699685B68D9E72200190056
:100690004046FFF7CFFEE4E7F82A0020E8290020D3
:1006A0000000F041CDCCCC3DB0000110F0B5DE46ED
:1006B00057464E464546E0B58FB003F0C9F80BF0FB
:1006C00091FA002808D0012040420FB0F0BCBB4690
:1006D000B246A946A046F0BD954B1800039300F022
:1006E000EFFAFFF733FF934B9946934BCA469B466D
:1006F000039800F0CDFA534690CBA7423CD000239C
:1007000099463F2398460EE002F07EFE64230100E6
:100710000193002300932A00039864330C3400F003
:10072000A1FAA74228D0A168606802F0F9FD8349C8
:100730006060051C02F040FE00280DD12668281CD0
:1007400002F062FE0500301C1F2DDDDD02F05CFEB4
:10075000002301000193DDE74B4663600DF03AFA98
:100760004246C3179B0EC0181040C01A02F02AFE62
:100770006568061C2060E2E75B465A465B681468C1
:1007800009939C4200D1E0E153460B920A93A3687F
:100790002168181C994602F0C3FDE3686168061CD5
:1007A0002060181C9A4602F0BBFD8021236960601E
:1007B000C905051C181C9B4602F0B2FD8046011CB1
:1007C000301C02F0F3FD002807D04346236080234D
:1007D0001B064B4499464646A3605946584802F0CA
:1007E0009CFD311C071C02F0E1FD002805D0802390
:1007F0001B064B442760A3603E1C4146281C02F0A8
:10080000D5FD002807D04346636080231B06534470
:100810009A464546E360291C381C02F0C7FD0028B3
:1008200005D080231B0653446760E3603D1C301CE9
:1008300002F0EAFD0600281C02F0E6FD050058461D
:1008400002F0E2FD2B1A29189A468B423DDC020089
:10085000B3464243331A8344904605935B4534DCE8
:1008600043421A0006930023994607910894534681
:100870001F21DE0F50464B4681425E417642F6B262
:1008800033001700464698465743069C059D049240
:1008900023006343DB19B34209DC434601934B4613
:1008A000524600932900FF23039800F0DBF901353D
:1008B00001345D45ECDD01239C46049A079BE2442C
:1008C000B04601329A45D2DD089C099B1434A342FC
:1008D00000D05CE70A9B9A460B9B58689B461B68B6
:1008E000C11A8E107200921915015219150252196F
:1008F0001504521992009619984200D125E11D0065
:100900005B1806930023099353460C935B460B96A2
:100910000D93099B0B9A01330993934200D310E185
:100920002B69059314239946A9444F460A970EE074
:1009300044400020F82A0020E829002000007C42E2
:1009400000007442069B1437BB4200D1F0E02B68D4
:100950003968181C994602F0E0FC6B688346796898
:10096000181C984602F0D9FC59468246584602F0B7
:10097000EEFC5146041C504602F0E9FC011C201C10
:1009800002F0CEFC3969061C059802F0C9FC011C76
:10099000041C02F0DCFC311C02F00EFD0028D1D05A
:1009A000301C02F065FD02F027FC02F01DFCA0499E
:1009B000061C02F0FBFC002800D09D4E311C58465E
:1009C00002F0B1FC311C8346504602F0ACFC311CF5
:1009D0008246201C02F0A1FCFC21890502F0B7FC34
:1009E000061C011C584602F0B2FC041C011C4846BF
:1009F00002F096FC311C2860504602F0A8FC061C50
:100A0000011C404602F08CFC68603868211C02F032
:100A100084FC311C3860786802F07FFC7860AB6839
:100A20005946181C984602F092FC5346EE6851460F
:100A3000041C301C0493079602F089FC011C201C46
:100A400002F06EFCBB6859469A46FB680890504617
:100A5000994602F07CFC0499041C484602F077FC9D
:100A6000011C201C02F05CFC802212069446049BB0
:100A7000061C6344191C40461C0002F068FC5946E1
:100A80008046079802F063FC011C404602F048FCD7
:100A9000211C8046504602F05AFC59468246484680
:100AA00002F055FC011C504602F03AFC311C814614
:100AB000584602F04CFC41468246201C02F047FC9E
:100AC000011C504602F02CFC049B311CA860181C31
:100AD0009A4602F03CFC4146061C584602F037FCA0
:100AE000011C301C02F01CFC089BE860191C5846D5
:100AF000984602F02CFC4946061C201C02F027FCFC
:100B0000011C301C02F00CFC4146B860504602F05B
:100B10001EFC4946041C584602F019FC011C201C0E
:100B200002F0FEFB069BF8601437BB4200D00EE7D4
:100B30000A9B0B9A1D00099B01330993934200D233
:100B4000EEE60C9B9A460D9B9B46002596260024BC
:100B5000039F96230022290038000196009400F09C
:100B600081F896230122290038000196009400F0B4
:100B700079F896233E22290038000194009400F071
:100B800071F896233F22290038000194009400F068
:100B900069F81F2D21DC2A009623002138000196D8
:100BA000009400F05FF82A00962301213800019696
:100BB000009400F057F82A0096233E213800019651
:100BC000009400F04FF82A0096233F213800019648
:100BD000009400F047F80135BBE72A009623002176
:100BE00038000194009400F03DF82A00962301217A
:100BF00038000194009400F035F82A0096233E2135
:100C000038000194009400F02DF82A0096233F212B
:100C1000380001940094013500F024F8402D98D15B
:100C2000039800F03FF81E2001F068FC60E5C04624
:100C3000CDCCCC3D4022402110B5074800F040FB10
:100C4000002000210022054B186059609A60044B77
:100C5000186059609A6010BD44400020F82A0020B6
:100C6000E8290020F0B506AD2E78056805AC24789B
:100C70008D420BD94768974208D96A43240251181C
:100C80001C43426A3604890034438C50F0BDC04690
:100C90000368426810B55A430021406A920002F08E
:100CA00079FC10BD70B505002C35040028000EF04D
:100CB000C3F9282301222800E2540EF0FDF870BD8C
:100CC00010B5054B18600A2001F018FC0BF062FD0E
:100CD00002480BF0D1FD10BD2C2E00201D0F00107E
:100CE000F0B54E464546DE465746E0B5060091B0A3
:100CF0003822894902A802F053FCD02510AB98464F
:100D00000127B14602AC2D0640CC300000F088FB34
:100D10003B00B3406B62AB61A045F5D180239B01E2
:100D20006B612C239846C84443464E462824D02560
:100D30000193335D2D06002B00D0A7E01023002483
:100D40009B4633680022002B5FD0FF218946FF219C
:100D500009028846FF2109048C4620218A4626E0A4
:100D6000042169614146084236D002216961614629
:100D7000084236D0594669614946194236D0514633
:100D8000696141460B4236D0802149006961614664
:100D90000B4236D080239B006B61C04680231B0131
:100DA0006B61C046AB613368013293422DD9270095
:100DB0005F435B01DB19316AB8189B189B00800008
:100DC0000818C91800680B6849460142C8D10421B7
:100DD000A96141460842C8D10221A9616146084281
:100DE000C8D15946A96149461942C8D15146A9619D
:100DF00041460B42C8D180214900A96161460B429E
:100E0000C8D180239B00AB61C7E780239B016B6146
:100E1000E3074BD58023DB006B61022323424BD0D9
:100E200080235B026B61042323424BD08023DB02CF
:100E30006B6123074BD580235B036B615B462342C9
:100E40004BD08023DB03042000216B6101F042FBC7
:100E500080235B019846022000216B6101F03AFB80
:100E6000434602200021AB6101F034FB80239B014B
:100E700064200021AB61013401F02CFB202C00D058
:100E80005FE72824335D002B00D157E701980EF06F
:100E9000D3F8335D002B05D0336A726A7362002386
:100EA0003262335501980EF007F847E78023DB00E4
:100EB000AB6102232342B3D180235B02AB610423E5
:100EC0002342B3D18023DB02AB612307B3D4802359
:100ED0005B03AB615B462342B3D18023DB03042079
:100EE0000021AB6101F0F6FA80235B0198460220F5
:100EF00000216B6101F0EEFA434602200021AB6154
:100F000001F0E8FA80239B0164200021AB6101F02D
:100F1000E1FA013415E7C046EC000110034B10B5AF
:100F20001868002800D110BDFFF7DAFE2C2E002033
:100F3000F0B54E464546DE465746E0B5140006007D
:100F40000D009846894683B0002A64D047688368BC
:100F5000DB1B9B10934200D2FAE043461B68984685
:100F60007B1A9A469B109A425CD294003B1B9A468D
:100F7000042C00DC84E11900220038000CF0FAFF98
:100F800073681B19736053465A1B042A00DC70E116
:100F90002900B81A0CF0EEFF2819A8423BD0043CF7
:100FA0006B07A208DB0F142C1AD92C00002B01D0E0
:100FB000414602C4012159409B00EB18454689185F
:100FC0004A08D200D2181D605D6008339A42FAD1F7
:100FD0000123A8460B421ED0A146994389008944AB
:100FE0004B46424604C3984215D04B465A600833DC
:100FF000984210D04B469A600C3398420BD04B4627
:10100000DA601033984206D04B461A611433984286
:1010100001D04B465A6103B0F0BCBB46B246A9466C
:10102000A046F0BD3800D21A9C4241D09200B818B8
:1010300087423DD0043A93089C467B073C00DB0F77
:10104000142A1BD9002B01D0424604C40121594067
:1010500061444A089B00FB18D200D2188C4611004C
:1010600042461A605A6008339942FAD16146012318
:1010700090460B421CD099438900641823004246D5
:1010800004C3984214D023000833626098420FD002
:1010900023000C33A26098420AD023001033E26090
:1010A000984205D0230014332261984200D0626137
:1010B00053467060042B00DCD5E0524629000CF04A
:1010C00059FF706850447060AF42A4D07A1B043A54
:1010D0006B079408DB0F142A1BD92800002B01D0C2
:1010E000424604C001215940091944469B004A0860
:1010F000EB18D200D2181C605C6008339342FAD11E
:101100000123A0460B4200D185E78146994389001F
:1011100089444B46424604C39F4200D17BE74B467D
:101120005A6008339F4200D175E74B469A600C33F2
:101130009F4200D16FE74B46DA6010339F4200D1E7
:1011400069E74B461A6114339F4200D061E762E7BA
:101150000368584A9B46FB1A9B10D11A8C4200D94F
:10116000A4E05946691A89469C4268D859009942B8
:1011700070D2514B1800019302F018FA844643468E
:10118000CC441A686346A4008246201F81085B078E
:101190000131DB0F142800D881E0E046002B02D09B
:1011A000604604C08046C91A9B004B44480853441B
:1011B000C000C0181A605A6008338342FAD1012374
:1011C0000B421AD0994389004144634608001B1919
:1011D00004C0834211D0080008304A6083420CD01A
:1011E00004308A60834208D00430CA60834204D04D
:1011F00004300A61834200D04A614B46042B47DD2C
:101200004A46594650460CF0B5FE4C4454447F1BA8
:10121000042F46DD3A002900200002F0C1F95B46A8
:10122000E419002B04D0B1685846C91A02F0C6F977
:1012300053463360019B74605344B360EBE68021F6
:10124000E31889058B4203D29B001800019393E7B2
:101250001300F9E780239B05994200D311008B000E
:101260001800019388E7042B00D02BE72B6803605C
:1012700028E7042A00D08FE62B68043F3B608BE60A
:10128000042C01D03B007CE61B683B603B0078E609
:10129000042BBAD15B4652461B681360B5E7614622
:1012A00093E7042FBBD12B682360B8E703480BF00A
:1012B00027FBC046FFFFFF1FFCFFFF7FD4F000109D
:1012C00070B5150000264D4382B0040001604260F5
:1012D0008660C660066146618661C6610196002D22
:1012E0000DD1002300222262636200222823200005
:1012F000E2542C3000F0C6FC200002B070BD2A0081
:10130000002101AB0830FFF713FE2000A1696369DB
:101310001430CA1A01969210954206D9AA1A01AB46
:10132000FFF706FEA2686369DDE7954204D2AD00CF
:101330005D19A94200D0A561A268D4E7074B8000DF
:10134000C3181B68C90092000A435A400C2313407B
:10135000034A9446604403607047C04604C001409D
:1013600004D00140D0231B061B6830B5050058424D
:1013700043412F205B4283430E48EC0884460720FC
:1013800028408000814020000B4D3C3063448000A9
:10139000A40041511B19002A05D0802292019446D5
:1013A0006344196030BDC0229201944663441960C1
:1013B000F8E7C0463041014000400140D023F0B57D
:1013C000C6461B0698461B680C4F9B001600FA5831
:1013D00004000D0000B5104209D1290014430D206E
:1013E0003200FC5000F09CF980BCB846F0BD01F022
:1013F0005DFB43461B689B00FA58EEE798F200201D
:1014000010B504000D2000F085FAD0231B061B68E0
:1014100002499B005A58A2435A5010BD98F200202E
:101420000123D0228340120693629361094A83000C
:101430009A1811684022514080320A400649C00083
:101440008C4663441A60054B9C4605236044436008
:101450007047C04604C0014004D001400040014034
:101460008023DB051868000F7047C0460FB400B535
:10147000084883B002F03CFA049B002B07D005A972
:101480001800019102F0A6F8034802F031FA012099
:1014900002F0B8F8ECF00010FCF00010EFF3108050
:1014A00072B6034A1368002BFCD0BFF35F8F7047FE
:1014B0002C0100D0BFF35F8F0022024B1A6080F333
:1014C000108870472C0100D070B5EFF3108C72B605
:1014D0000D4D2B68002BFCD0BFF35F8F0724CB088A
:1014E000C618C05C01230C40A3401C00044003420A
:1014F00007D118433070BFF35F8F2C608CF31088D6
:1015000070BD1000FFF7B2FF2C0100D0F8B54746C0
:10151000CE46884680B5EFF3108C72B6214D2C680C
:10152000002CFCD0BFF35F8F9A422CD8D408072739
:10153000055D061901241740BC402C421FD007212D
:101540000127894609E0D408055D06194C46390093
:101550001440A1400C00294211D001329342F2D232
:1015600001204042BFF35F8F00220E4B1A608CF3C4
:10157000108800280FDBC0BCB946B046F8BD254333
:1015800010003570EEE7BFF35F8F00232B608CF304
:101590001088012040424346002BECD00898FFF70A
:1015A00065FFC0462C0100D030B5EFF3108C72B649
:1015B0000A4C2368002BFCD0BFF35F8F0723012266
:1015C0000B409A40CD08435D93434355BFF35F8F73
:1015D000002323608CF3108830BDC0462C0100D05E
:1015E000044A1078431CDBB2172B00D91023137068
:1015F0007047C0469C21002010B5064B064C82B0B7
:101600000100009318221F232000FFF77FFF02B084
:1016100010BDC04600F10010103600200021044B20
:10162000044ABFF35F8F02C39342FAD17047C046AA
:10163000000100D0800100D0054B064A1360064A25
:10164000136053609360D36013615361936170477B
:101650008080808000E400E004E400E01F23184064
:101660001E3B8340002905D0C021044A4900535045
:1016700013607047802201498B50FAE700E100E0D7
:1016800001228240034B1B6813405A1E9341D8B27B
:101690007047C04600E100E001238340014A136027
:1016A0007047C04600E200E0064B10309B688000A7
:1016B000C358054A00209B1A2F229A424041C0B2CB
:1016C0007047C04600ED00E0A021002070B50D007D
:1016D000EFF3108672B60F4A1368002BFCD0BFF3ED
:1016E0005F8F0D4B10309B6884001B590B4A93424F
:1016F00003D09D4201D001F0D9F9074B9B681D51E1
:10170000BFF35F8FBFF35F8F0022024B1A6086F337
:10171000108870BD240100D000ED00E0C101001070
:10172000F0B557464E46DE464546E0B585B0060064
:1017300000911700EFF3108B72B66A4A1368002B02
:10174000FCD0BFF35F8F0025674B5D579A46002D95
:1017500000DAA9E06B00654C01935B199B00984689
:10176000A146C1444B4652469B7910361370604BDC
:10177000B6009B6899590B1B2F2B33D95D4B9942AF
:1017800000D0ACE0019B42469C465B4B6544AD00FB
:1017900063535A4B0232A218043B9B1A1B05584A4A
:1017A0005B0D651913436B80564B0121AB80FF2302
:1017B000AB71009BEF71AB604B460B4319004C4B78
:1017C0009B689951BFF35F8FBFF35F8F0022454B3A
:1017D0001A608BF3108805B0F0BCBB46B246A94630
:1017E000A046F0BD01200A008243D3798C46BB425B
:1017F00031D84546130044491B1B5B415943090D31
:101800003D4B63533D4B02356519043B5B1B1B0588
:101810003B4D5B0D2B43AA464D466B800425AC46E1
:101820005546E044131F44441B1B1B055B0D1D4321
:101830004B46997100999D8099604946DF71334B01
:1018400001431360BBE75800C01880002018C1791D
:10185000B9422FD902000623D356002BF3DA0293A4
:101860002B4B61460393131D9A4604235B429C460F
:10187000E14450464B461B1A1B055B0D9C46204B12
:10188000957198466346404603439380019B5A19DD
:101890009200039BA418A380029B1C4AA371009B87
:1018A0002260E771A3608AE701F000F90025534642
:1018B0005D574FE7908802934005131D9A46031524
:1018C00061469C464046D444634604302018181AAA
:1018D000E0230005400D1B0218430390C5E701F00B
:1018E000E5F84FE7240100D002F40020A0210020F9
:1018F00000ED00E0C101001000A1FFFFD021002099
:1019000000E0FFFF01BDFFFFAAAA000001488047D9
:1019100001BD0000F0B5DE4657464E464546E0B5EF
:101920000C0083B0EFF3108872B6634A1368002B83
:10193000FCD0BFF35F8F614B61499A68030010339D
:101940009F00D55900938D4243D0A54254D05D4E9F
:10195000AA1B2F2A3DD85C4B9C461B689A46012344
:101960001A0099468240534613401F2201934B466A
:10197000024093409A468022634650469850BFF3F7
:101980005F8FEFF305839B46002B37D0009B5B45B1
:1019900001D001F08BF82A004B469A4390688442AC
:1019A00008D177E04B005B189B00F31898688442DD
:1019B00036D01A00062151560029F3DA844255D058
:1019C000019B002B27D0C02251463F4B520099501B
:1019D00019603A4B9B68DD51BFF35F8FBFF35F8F98
:1019E0000022354B1A6088F3108803B0F0BCBB4668
:1019F000B246A946A046F0BD0D00EAE72A004B46D4
:101A00009A4390688442D5D10620105613000028CE
:101A10000ADA0D0032E0802351462B4AD150D8E734
:101A200006201856002822DB42001118890074187D
:101A30008946A1689960E179D97106216156997149
:101A4000002925DBA488F11A640524154C440919E2
:101A5000E0240905490D24022143998013181B4AEB
:101A60009B001178F31899711070A9E7130059467B
:101A7000002914D1FF3191711549918013490A78D9
:101A80009A71144A9B1B5B415A43120D0A7097E7E7
:101A90001149E2E70620105613000028C4DA0F4A65
:101AA0000F49D21A083A5002400D014399800D495E
:101AB00052080A43DA8083E7240100D000ED00E0F9
:101AC000C1010010A021002000E100E002F400208C
:101AD00001BDFFFFAAAA000001BD0000DA2100201D
:101AE00000F0FFFF00F8FFFF10B58308040003209B
:101AF0002040FF24054AC0009446844081409B005A
:101B000063441A68A2430A431A6010BD00E400E06F
:101B100070B501240443EFF30581EFF3108C72B626
:101B2000214A1368002BFCD0BFF35F8F1F4B0500C9
:101B30001F4AED1A6D416A43120D1E4D8900AE68B1
:101B400052B27658A6421CD00621595691421CD05A
:101B500012215956914222D01E215956914220D02D
:101B60002A2159560324914210D0134B19781A7028
:101B70008171BFF35F8F00220B4B1A608CF31088CA
:101B800070BDAB680D4C5C50EFE700246100091993
:101B900089005B18FF21997109499980E5E70124C3
:101BA000F4E70224F2E7C046240100D0A02100207F
:101BB000AAAA000000ED00E002F40020C10100101C
:101BC00001BDFFFF1F2110B5091A0248FFF7ECFC09
:101BD00010BDC0460BF4002010B5084B084C82B075
:101BE00001000093002205232000FFF78FFC00284E
:101BF00001DB1F23181A02B010BDC0461CF10010F3
:101C00000BF4002070B504000E001500FFF7E8FC8F
:101C10000100200000F006F8A680E580BFF35F8F8A
:101C200070BDC046024B9C4661448900016070470C
:101C30004000003470B5114C114DAC420FD2FF265C
:101C40002368002B0CD0FFF7CBFC01002000FFF72E
:101C5000E9FFA680BFF35F8F0834AC42F0D370BDBC
:101C6000FFF7BEFC01002000FFF7DCFF2671BFF389
:101C70005F8F0834AC42E3D3F1E7C046F42700207D
:101C80000428002010B50400FFF7AAFC0100200082
:101C9000FFF7C8FFFF232371BFF35F8F10BDC0465E
:101CA00010B50400FFF79CFC01002000FFF7BAFF0D
:101CB000FF23A380BFF35F8F10BDC04610B50400A3
:101CC0000120FFF799FC034BC3189B002360BFF36F
:101CD0005F8F10BD40000034034B9C466144890077
:101CE0000160BFF35F8F7047400000340A4B1968F2
:101CF000EFF3108072B60A68002AFCD0BFF35F8F42
:101D00001B68BFF35F8F00221A6080F3108840BF0A
:101D1000002000217047C046B4F30020F0B5DE4635
:101D200057464E464546E0B583B0EFF305820323A0
:101D30001340B54A990052580091904601229A40AA
:101D40009346B24B1A60B24B01935B46B148436372
:101D5000434608229B5E9946002B3ADA43469B880D
:101D60001BB2002B00DB9DE043469B79002B00D08B
:101D7000E1E0434608241C5F002C20DB43465A69FF
:101D800063001B19DB00D3189D68DC686B1C00D155
:101D900003E1A048009984466144826A0B69AE1A47
:101DA0009B1A9E4213D35A46036A1A420FD099488F
:101DB00000F062FC8C4202DCC7D18542C5D940BF2D
:101DC00003B0F0BCBB46B246A946A046F0BD0D61CB
:101DD000EDE7424652695B0092464B44DB009A4471
:101DE00053469E68DF6800F047FC8F42B6DC00D1A6
:101DF000F8E0002F00DAD9E05246534654691B69D7
:101E0000019A934200D1CCE0414652460820085E38
:101E10005288000421001043984704000D0023005D
:101E20002B4300D1C2E0002D00DBDFE030003900A1
:101E3000001BA94153469860D96000229A5E002A8F
:101E400000DA8BE743465D6953009C18E4002C19C7
:101E5000A768E4688C4200DD80E702D1874200D9A0
:101E60007CE74646328108360DE08C4200D1C6E060
:101E70001E000023F25E002A0ADB53009C18E400D7
:101E80002C19A768E4689B18DB00EB188C42ECDD8A
:101E900053461A804B46338043469B881BB2002B27
:101EA00000DA61E743461A69EFF3108172B61368EE
:101EB000002BFCD0BFF35F8F43469E880123424630
:101EC0005B42938036B21369BFF35F8F00221A60C2
:101ED00081F31088002E00DA46E743465D69083337
:101EE00042469C467700BF19FF00EF19BB68604669
:101EF00098460823D15E9246FC68002907DA0EE076
:101F0000A24246D018000023C15E002906DB4B0028
:101F10005B18DB00EB18DA68A242F1DD524606805E
:101F20000023FE5E3980002EDCDA904643469B7922
:101F3000002B00D11DE700234246937143464646DD
:101F40000821595E08364B1C00D138E747468946C0
:101F5000556902E006004B1C18D04B005B18DB00F3
:101F6000E8180A008C46E95E43881BB2002BF1DAC0
:101F700001235B42DC178360C4604A4503D0318093
:101F80003B8903803A81E1464B1CE6D1B8464C467A
:101F9000F2E69A684245B5D9C0E7631C00D0F8E67E
:101FA00005E7200023699847002825D1534642467B
:101FB0001B8813811269EFF3108372B61168002930
:101FC000FCD0BFF35F8F4246514652880A8042469A
:101FD000494651801269BFF35F8F0021116083F37E
:101FE0001088BBE6864200D803E7B7E6094800F050
:101FF00043FB001969411DE7656824680FE78742C4
:1020000000D835E744E7C046CCE200203C700540EC
:102010001D1D00100040054070B52E4C2569002D97
:1020200004D00A212C48FFF7FDFD70BD2B4E032183
:10203000300000F0FFFAE660FFF7D2FA284B0322E7
:102040009C46D02322701B061B6801216370254B20
:102050006044A3600F2380002061022063806369D5
:102060004942A18019800231198647311D83585297
:1020700018315A5275325C399952183201319952DD
:1020800018320131995218320131995208351832FB
:102090009D52023118329952183201319952183238
:1020A0000131995218320131995218320131995245
:1020B0001832013199520C4B0C49DC600130356209
:1020C000FFF704FB01210320FFF7C8FA084B1D604E
:1020D000A7E7C046E8210020B4F3002000400540F7
:1020E00040000034FFFF1000CCE200201D1D001056
:1020F0003860054000487047E8210020F8B5050029
:1021000018200F0001F0EEF9041E3ED0182138000F
:1021100001F006FA01216061280000F09DFAE560F7
:102120000600FFF75DFAD022267012061268184BDF
:1021300062709C460122BBB25242604480006381BF
:102140009B1820612281A2806380002F0BD0790030
:102150006269C919C9000F4B8918138001331832FD
:102160009BB28A42F9D10127B7400B4BB200300035
:102170000A492F62D450FFF7A9FA01213000FFF776
:102180006DFA074B9C4665442F602000F8BDC046A1
:1021900040000034FFFF0000CCE200201D1D0010B5
:1021A00038200000124B70B5040098421ED0012365
:1021B0000578C668AB400F4A3362B218136001213C
:1021C0002800FFF74BFA28000B49FFF7A3FB290073
:1021D000300000F039FA00212278084B6069920043
:1021E000D15001F0BFF9200001F0BCF970BDC0462C
:1021F000E8210020383000001D1D0010CCE2002036
:10220000F8B51F0008AB1B7804001600002B08D19E
:1022100000F03AFA32003B00121A8B41002B00DA30
:1022200053E02269EFF3108072B61368002BFCD0E4
:10223000BFF35F8F0223E15E63694A005218D20048
:102240009B18002937DB1A8862802269BFF35F8FF1
:102250000025156080F31088069A9E60DF601A6181
:10226000079A5A615A8801325204520C101C002AF3
:102270001FD082B25880080410432669EFF31087FC
:1022800072B63268002AFCD0BFF35F8FA2881A8032
:10229000A1802369BFF35F8F00221A6087F3108843
:1022A0000B4923788C4601329A40E36863441A60F4
:1022B000F8BD0120DDE72369BFF35F8F00221A60BC
:1022C00080F3108801204042F2E70020F0E7C0468A
:1022D0003C20000070B501000469EFF3108C72B669
:1022E00020680028FCD0BFF35F8F02200D5E4C6990
:1022F00068004019C0002418002D37DB2088488072
:102300000869BFF35F8F002606608CF31088E360D6
:1023100063880498013320615B0405985B0CA2601C
:1023200060611A1C002B1FD093B2280462801843EE
:102330000A69EFF3108C72B61368002BFCD0BFF360
:102340005F8F8B8823808D800B69BFF35F8F0022A6
:102350001A608CF310880B7801329A40CB680849D8
:102360008C4663441A6070BD0122DDE70B69BFF340
:102370005F8F00221A608CF3108801204042F2E740
:102380003C20000010B543890A1493421ADD530023
:102390009B184269DB00D3180469EFF3108C72B606
:1023A0002268002AFCD0BFF35F8F5A88090494B2D8
:1023B000090C8A4208D00369BFF35F8F00221A60BC
:1023C0008CF31088002010BD8022120214435C8020
:1023D000012302698371BFF35F8F002111608CF3C9
:1023E0001088044902788C469340C26801206244F8
:1023F0001360E8E73C20000040787047F0B5040027
:102400000D0006267642F717C64636196F4100B50D
:1024100082B08F4214D811D000F036F932003B0060
:10242000121A8B41002B17DC002B47D0200029000B
:1024300000F034F902B080BCB846F0BD8642EBD95A
:102440000022002316001F0000F01EF932003B009E
:10245000121A8B41002BE7DD00F016F932003B0029
:10246000121A8B41002B0ADB00230193154B32001B
:10247000009315483B00FFF72DFF0028D6DB002313
:102480009C46B046114A124E736A9F4204D8B16A04
:102490008845CBD99F42C9D11168EFF3108072B63D
:1024A0000B68002BFCD0BFF35F8F1368BFF35F8F07
:1024B0006146196080F3108820BFE5E7002AB5D097
:1024C000CAE7C046ED1C0010E8210020B4F300204C
:1024D0000040054070B504000D0000F0D5F88023E1
:1024E000001969411B06994202D30120024940426A
:1024F000FFF784FF70BDC046FFFFFF7F70B5060089
:1025000000F0C2F8FA2204000D0000233000002180
:10251000920000F0E5FE8023001969411B069942F4
:1025200002D3012002494042FFF768FF70BDC04658
:10253000FFFFFF7FF0B5D6464F464646C0B50400C4
:102540000D0082B0EFF305878946002F0ED0344985
:1025500000204B6AAB4203D38A6A0130A24226D3E1
:1025600002B0E0BCBA46B146A846F0BD2D4B984635
:10257000DB689A46434650461E7800F07DF80B0013
:10258000514602000436B600715820008E1A290008
:10259000801A99418F4211DC0ED020BF204A0020C2
:1025A000536A4B45DCD3926A0130A242D8D25B1BFE
:1025B0005A1E9341D8B2D3E78642EED900F064F8B0
:1025C00022002B00121A8B41002B1ADB00230193EF
:1025D000154B2200009340462B00FFF77BFE011EA7
:1025E0000FDD0F4B5A6A4A4517D39B6AA34212D399
:1025F0004046FFF7C7FE0A4A0020536A4B45AFD357
:10260000D1E7074A0020536A4B45A9D3926A0120BB
:10261000A242A5D2CBE74A45EAD120BFE8E7C046AF
:1026200000400540E8210020ED1C001000487047E4
:102630000040054010B5024A0248FEF745FF10BDB4
:1026400038F100101436002010B50248FEF7ACFF38
:1026500010BDC0461436002000B5054B83B0009372
:10266000002203230348FEF751FF03B000BDC0461C
:102670005CF10010143600200300416A0A00986AD9
:10268000596A8A42FAD17047034B596A0A00986A1C
:10269000596A9142FAD1704700400540064A536A90
:1026A0009942FCD807D1044B02E05A6A914202D108
:1026B0009A6A8242F9D3704700400540F8B5DE4679
:1026C0004E4657464546E0B58B4605000A99180028
:1026D000160000F051FB0A9B6C001F02324B64197C
:1026E0009C46A4006444636881469F4200D96760A9
:1026F0002B1FDBB29846012B30D9C02380229B01CF
:10270000E31812011A60294BAD0059599A46002965
:102710001BD17301E026226853401E4080234246AD
:102720005B01E3181E60012A30D9802380229B01BF
:10273000E31812011A6053464A4667605A51F0BCCA
:10274000BB46B246A946A046F8BD586900F014FB46
:10275000013043001B18033BFDD2DAE75B46012B37
:10276000CBD1C02303229B01E3181A60023AA3686D
:102770001A42FCD07301E0262268AD0053401E408F
:1027800080230A4A5B019246E3181E605A4621687C
:10279000514003220A401A6001225B469A40A36816
:1027A0001A42FCD0C1E7C046008000401C36002021
:1027B000F0B546464F46D646C0B51F00344B4400E0
:1027C0009C462418A4006444636888461600FF2BC6
:1027D00002D880235B006360031FDBB29A46012BA3
:1027E00030D9C02380229B01E31812011A60294BC3
:1027F00085005959994600291BD17301E0262268AA
:1028000053401E40802352465B01E3181E60012A9C
:1028100030D9802380229B01E31812011A608023A3
:102820005B0063604B465F51E0BCBA46B146A846C8
:10283000F0BD586900F0A0FA013043001B18033BBB
:10284000FDD2DAE74346012BCBD1C02303229B0103
:10285000E3181A60023AA3681A42FCD07301E0261A
:102860002268850053401E4080230A4A5B0191463E
:10287000E3181E6042462168514003220A401A6054
:10288000012342469340A2681342FCD0C1E7C046F0
:10289000008000401C360020014B8000C05870476B
:1028A0001C360020F8B5040021481E0017000D005A
:1028B00000F062FA0100380000F05EFA069B360470
:1028C0001B031E432368002B20DB1A4B1A49E31815
:1028D0005A1E93418022920194465B421B0B174A79
:1028E0001B0363441360164A13601F000A68974372
:1028F000FBD1144B2560E2182123A06013602368EC
:10290000002BFCDA0823E6601360F8BD3F23226841
:102910001340AB42D9D1A3681B051B0D8342D4D110
:10292000EE22E368D2021340B342CED1EDE7C046B7
:10293000001BB7000040FDBF08C0004000E00040A1
:1029400000F000400430000010B580241C4BE4056A
:102950001C6000281AD001231A4C18431A4BDC6162
:102960001A4C44401C62596298628021144BC9057C
:102970001960174817490860E021C9041960002A46
:1029800007D18022144B12061A6010BD0E4BD8617D
:10299000EBE753019B1A9B009A18802312015B04FA
:1029A0009A4209D213000D490B60074B5A608022EE
:1029B000094BD2051A60E8E7094B1A00F3E7C04655
:1029C00000B00540D3C007B0008005402D3FF84F50
:1029D000FCFF01000820014000A005403049002014
:1029E000FFFFFF008023024A9B000B43D362704726
:1029F00000800540142310B50100188804331B889B
:102A0000984710BD162310B50100188802331B88A3
:102A1000984710BDF8B54746CE4680B50F1E19D071
:102A200014239946043304000025012698464B469A
:102A30001888434621681B88984701C4431E984163
:102A4000013540420640AF42F1D13000C0BCB9462A
:102A5000B046F8BD0126F8E7142370B504001888C5
:102A600004331B880D000549984703000020002C03
:102A700001DB0130A04029009847C04655420000C4
:102A8000AA23064A1B0113608D235B00D36004490F
:102A9000044B19605368002BFCDA70470040024079
:102AA00000B0FA00006002407047C04610B501480F
:102AB000FEF7DCFC70F1001070B5074D074EB54213
:102AC00009D20024013E761BB60808CD98472300A2
:102AD0000134B342F9D170BD68F00010A4F00010C9
:102AE00070B5074D074EB54209D20024013E761B52
:102AF000B60808CD984723000134B342F9D170BD20
:102B00009CF00010A4F00010054B064A06491A601C
:102B1000064A074B1A6010000B689843FBD17047B8
:102B200000E00040BFCDFBFE08C00040FE7F3C003F
:102B300000F00040044BDB6C002B03D18022034BE0
:102B4000D2021A607047C046000011504C2011504C
:102B5000044A054B1A60054A1368DB018033FBD138
:102B60007047C046FFFFFF0100F0004008C0004072
:102B70004022034B9A675A671A67DA667047C04665
:102B800000F0014010B5FEF749FD10BDF8B527492A
:102B9000274C284D641AA6103200302E00D930225E
:102BA0002800920000F0FCFCBC2C3BD830202F23E6
:102BB0002C196407204A801BE40F9B1B052B16D998
:102BC0003700002C02D0B300771CEA50001B3319E9
:102BD0009B004108EB18C900C9181A605A600833F5
:102BE0009942FAD1012303421CD09843C619B3007D
:102BF000EA50731C2F2E15D09B00EA50B31C2E2ECA
:102C000010D09B00EA50F31C2D2E0BD09B00EA50F5
:102C1000331D2C2E06D09B00EA50731D2B2E01D0A5
:102C20009B00EA50054B9D60F8BDC04600010010B6
:102C3000C001001000000020C101001000ED00E004
:102C4000002310B5294C82B0A367FFF719FF0122BA
:102C5000274B1A60636C012BFCD10322254B1A60B1
:102C6000224A936B012BFCD1013300930121224AAC
:102C700022480433FFF716FE052301210093204A62
:102C80002048FFF70FFE0022022104201E4BFFF711
:102C90008FFD0022012105201C4BFFF789FD00223A
:102CA000002107201A4BFFF783FD00220021082096
:102CB000174BFFF77DFD8023DB00009300220021EE
:102CC0000920134BFFF7FAFC0022104B00210620CD
:102CD000FFF76EFD0420FFF7DFFD0E4900F04CF812
:102CE00001000020FFF77EFE02B010BD0080004012
:102CF0003CB0004030B00040002F685900800240D6
:102D0000008C864700C00240001BB7004059730783
:102D1000006CDC0240420F0001480421014B1847BF
:102D200000220020152A0010124A936F9B0815D22A
:102D30009066D166002905D0FFE7FFE7FFE7516FF6
:102D4000106F704704B580210906C2175140002852
:102D500000D0C8430CF0F0F8002104BDF0B5146EAB
:102D6000556E576F166FFFF7E3FF1466556657678A
:102D70001667F0BD000000D0114A936F9B0813D274
:102D800010665166002905D0FFE7FFE7FFE7516FA6
:102D9000106F704704B5002801D00020C0430CF02C
:102DA000CBF8002104BDC046F0B5146E556E576FC8
:102DB000166FFFF7E5FF1466556657671667F0BD97
:102DC000000000D094464A4A926F9208624601D2AF
:102DD00028E0C046F0B5464E346E756E776F366F9C
:102DE00000F020F89446424A146655665767166705
:102DF0006246F0BD94463E4A926F9208624601D206
:102E000054E0C046F0B53A4E346E756E776F366F4B
:102E100000F04CF89446364A1466556657671667B4
:102E20006246F0BD002B24DB11D000293EDA00B54C
:102E3000C943404200D1013100F038F8C943404253
:102E400000D10131DB43524200D1013300BD002AE1
:102E5000EBD1002801D1002905D00020C90FC907F6
:102E600001D1C043410800B50CF02EF80022002328
:102E700000BD00B500290ADBDB43524200D101331B
:102E800000F014F8C943404200D1013100BDC943EC
:102E9000404200D10131DB43524200D1013300F006
:102EA00005F8DB43524200D1013300BD002923D194
:102EB000002B18D1002A0CD0BC460D4F38667A661C
:102EC00000210023FFE7FFE7FFE77A6F386F6746CF
:102ED0007047002801D00748010000B50BF0F4FF4F
:102EE0000022002300BD02000B00002000217047DB
:102EF000000000D0FFFFFFFF002B00D0BFE0130C4D
:102F000028D1002AE7D080B4114F39667A66FFE7EE
:102F1000FFE730B4040C7B6F396F1B0423433B661F
:102F20007A66FFE7FFE7FFE7C04684B27B6F3D6F3D
:102F30001B0423433B667A66FFE7FFE7C046002396
:102F40002C042D0C7A6F386F00196941B0BC7047A2
:102F5000000000D0F0B594460025140E01D11202F5
:102F60000835140F01D112010435940F01D19200DC
:102F70000235D40F01D152000135D40B0134254F55
:102F80007C66254C3C660E0C93B2FFE7FFE7FFE73B
:102F90003C6F6643360C7703BE467343DF0B5B041E
:102FA000C01AB941130C7343DB18C91ACE08664323
:102FB000360CB64493B273431F0F1B01C01AB941BC
:102FC000130C73431F0B1B05C01AB941860D8F02EA
:102FD0003E436643360C092D24DB520A7243801AA5
:102FE0007703460A6643360C16235B1BDE40DF4040
:102FF000BF1964466643821B7046043506330100E0
:10300000D940A840C01900D30131A24206D2002302
:10301000F0BD0000000000D0FFFFFFFF121B0130D9
:10302000F3D3F1E709277F1BFE406446A2B2724347
:10303000801A00D20139220C7243130C1204821A36
:1030400099410B007046043513370100F940A84040
:10305000801900D30131002B02D1A2420AD2F0BD67
:10306000013000D30131121BFAD2013BF8D1A24248
:1030700000D2F0BD013000D30131121BF7E7F0B5EB
:103080001C0C00D080E00CB400251C0A04D11B02EB
:10309000160E3343120208351C0B04D11B01160F08
:1030A0003343120104359C0B04D19B00960F33432C
:1030B00092000235DC0B02D192185B4101351C00F5
:1030C000971864410134464F7C66464C3C660E0CB2
:1030D000FFE7FFE7FFE7C0463C6F6643360C770328
:1030E000BE4697B27743C01B00D20139C01B00D245
:1030F00001399FB27743C91BC91B170C77437E0464
:10310000FF0B801BB941CE086643360C0C2D33DB18
:10311000B644120B1F053A431B0B97B27743C01BF3
:1031200000D201399FB27743C91B170C77433E0485
:103130003F0C801BB941860D8F023E436643292711
:103140007F1BFE400C3D7746AF40BF1930BCA2B29A
:10315000ABB272437343801A9941220C7243130C31
:103160001204801A994102000B000137001BA9418B
:10317000F9D2781E0021F0BD0C277F1BFE40774658
:103180007F0BAF40FF19E0E700245D1C07D0144F10
:103190007D663966FFE7FFE7FFE7FFE73C6F95B223
:1031A0009EB265436643401BB141150C1E0C65433E
:1031B000664336042F0C3E432D04401BB141994217
:1031C00004D202000B0020000021F0BD01D190428A
:1031D000F7D3801A994101349942F2D3F6E70000FF
:1031E000000000D0FFFFFFFF18B4024BDB6F01931C
:1031F00008BD0000F829002018B4024B9B69019318
:1032000008BD0000F829002010B50148FEF72EF98E
:103210007CF10010132370B51D78012D19D014DD39
:103220001D48FFF7EFFB06001C48FFF7EBFB1C4CAB
:1032300080223100200000F0B3F9022D06D0194899
:10324000FFF7D8FB184B186070BD154C174BA364E3
:10325000F5E7174B124C23606360A360E3602361C2
:103260006361A361E36123626362A362E362236338
:103270006363A363E36323646364A364E364236518
:103280006365A365E36523666366A366E3662367F8
:103290006367A367E367D9E7534400005346000020
:1032A000F82900204C330000B0F20020B5320010A5
:1032B0000932001007B5604601880A0A0230DF2A89
:1032C000FAD1C9B2820804D30288408800041043AE
:1032D00000E00068014A5050039007BDF829002023
:1032E00051434343C9188C46110C83B24B4310B46D
:1032F000040C614392B280B2504362431C041B0C25
:10330000001910BC59411304120CC01851416144FA
:10331000704700004840414048400E4B5B681847EA
:103320000C4B1B6818470C4A936F9B0802D2094B41
:10333000DB681847F0B5146E556E576F166FFFF7C0
:10334000F6FF054A1466556657671667F0BD014BD0
:103350009B681847B4F20020000000D007B5484031
:103360004140484001E0C04607B54200120E03D07C
:10337000FF2A03D1420218D8C00DC0054A00120E20
:1033800003D0FF2A03D14A020FD8C90DC905012273
:10339000414005D4414001D5814207BD884207BD67
:1033A0000143491801D0C043001807BD00B5FFF71D
:1033B000DBFF804100BDC04600B5FFF7CFFF804175
:1033C00000BD0000C10FC90700D54042002817D03A
:1033D000F44603B40B4B1B68984706BC81409E38EB
:1033E0004042803107D20B0607D04900490AC00588
:1033F0001043084360470130F8E7490A8902F5E7BE
:1034000070470000B0F2002041000A0E80231B0626
:103410007E2A0BDD9E3A0BDAC117400240081843A2
:103420005242D04049000131484370470020704764
:10343000C00FC01801387047C0420DD300B540001E
:103440004008002100F00EF8002801D4404200BDE1
:103450008020000600BD0000014BDB69184700001A
:10346000B4F20020014B5B6A18470000B4F2002060
:10347000014BDB6F18470000B4F2002010B5014883
:10348000FDF7F4FFBCFE0010132310B510481C78A4
:10349000FFF7B8FA0100012C0AD003DD80220D48A5
:1034A00000F07EF80C48FFF7A5FA0C4B186010BD31
:1034B000084C5422200000F073F8220008498032A2
:1034C0002368002B00D1216004349442F8D1E9E74D
:1034D00053460000B4F200204C330000B0F200204C
:1034E0007D34001070B504000A4E30000BF0A4FDCE
:1034F00020000BF047FA050030000BF0DDFC002D3A
:1035000005D0054B2C199C4201D8280070BD0348FA
:10351000FDF7ACFFF42700200000042094F1001018
:10352000F8B506000C000C4F38000BF085FD2100AB
:1035300030000AF077FD050038000BF0BDFC744345
:10354000002D05D0054B2C199C4201D82800F8BD50
:103550000348FDF78BFFC046F4270020000004203D
:1035600094F1001070B50400054D28000BF064FDC7
:1035700020000BF011FA28000BF09EFC70BDC04635
:10358000F427002001480421014B18471022002095
:10359000152A0010014B1B6818470000102200205C
:1035A000014B5B68184700001022002010B5FFF7A0
:1035B00099FF10BD10B5FFF7D5FF10BD10B5FFF78F
:1035C000D1FF10BD10B5002800D110BD00F044F9A6
:1035D000FBE7C04610B5094A0300146884B0002C0C
:1035E00008D0012200910648524203A9A0470120B9
:1035F00004B010BD00F07CF90020F9E72849002054
:10360000C535001000BEFDE7094A03001068002818
:1036100005D00849C3188B4207D813607047064885
:103620000449C31810608B42F7D901204042F5E7E6
:103630000C450020000004200CF4002000207047FE
:10364000012040427047C04610B5FFF7DBFFC0467F
:1036500070B5FFF731FA074D074EB54209D2002485
:10366000013E761BB60808CD984723000134B342CB
:10367000F9D170BDA4F00010B8F00010030010B52F
:10368000080011001B68984710BDC046F0B5C6463B
:1036900000B5437D07000D001600002B38D0002A2E
:1036A0002EDD00216A1E90466A5C037D4C1C0020C2
:1036B0000A2A0CD0A64216D043461B5D21000D3BC2
:1036C0005A4253416A5CDBB24C1C0A2AF2D1002BED
:1036D000F0D1884217DB022110483B689847A64288
:1036E00007D02000E8E7864203DD311A3B6828183E
:1036F0009847AD19013D2B780D3B5A4253413B751C
:1037000080BCB846F0BD091A3B6828189847E2E724
:103710000368110028009847F2E7C04684010110B1
:10372000F0B5DE4657464E464546E0B585B0170033
:103730001C0006000D00FEF7A7FF0023314A1218F7
:103740004B41802109068B4202D301222E4B52426B
:103750002E4908008A460BF037FC01906B1C03D100
:1037600030000BF08BF90500002C26D0284B984632
:10377000284B1C68002C15D0002F21D1264F02E0C9
:103780002469002C0ED02368002BF9D03B68002B55
:1037900001D09C42F4D120002A003100C0472469A6
:1037A000002CF0D1019B002B28D1280005B0F0BCE3
:1037B000BB46B246A946A046F0BD184B9846D7E78F
:1037C000154B994602ABDF1D0A239B4602E0246994
:1037D000002CE7D02368002BF9D04B461B68002B48
:1037E00001D0A342F3D12A0031002000C0475B463C
:1037F0000122390020003B70C047E8E750460BF03B
:103800005BFBD2E740420F00FFFFFF7FFC27002059
:103810008D36001000450020084500207D36001040
:103820000A4A1368002B05D10CE01A001B691032FC
:10383000002B07D09842F8D1002902D10369136008
:10384000016170470029FCD01060FAE700450020B4
:1038500010B500F08DFA10BDF0B5CE46474680B5E4
:1038600083B06B460600DD1D2870FEF70DFF0023B8
:103870001A4A12184B41802109068B4202D30122B9
:10388000174B52421749080088460BF09DFB164B18
:1038900081461C68002C14D0144F02E02469002CCF
:1038A0000FD02368002BF9D03B68002B01D09C423D
:1038B000F4D1200001222900FFF7E8FE2469002C42
:1038C000EFD14B46002B05D1300003B0C0BCB94648
:1038D000B046F0BD40460BF0EFFAF5E740420F006E
:1038E000FFFFFF7FFC270020004500200845002047
:1038F00070B504000BF0C2F801230100050001229D
:103900002000FFF70DFF084B1C68002C06D06368F1
:10391000002B05D098472469002CF8D1280070BDF1
:103920002469002CF3D1F9E7004500207047C04618
:103930000022014B1A70704703F400204B790020DD
:10394000FF2B0BD18B79002B08D1CB79012B05D123
:10395000082A03D9024B8A7809301A707047C0468A
:1039600003F400200120704710B5012901D0012087
:1039700010BD13495379107909781B0203430020C5
:103980009942F5D15378012B08D0022BF0D10020B9
:1039900064220021FEF7D8FF0120E9E7D37891786F
:1039A0001B021943DB0507D54A0A100001231A4000
:1039B0007E331940FFF750F801204A0A4042F5E7EC
:1039C00003F40020004870475002011070B5050054
:1039D00014000120012909D153780020012B05D1C1
:1039E000637912791B021343072B00D070BD2100AD
:1039F0002800024A9F3301F067FAF7E7A801011097
:103A00000123037000487047880101104B780A7841
:103A10001B0213438A7810B512041A43CB781B0695
:103A200013439622D200934200D010BD0022012001
:103A300011004042FFF710F8024B1860024B19606A
:103A40007047C046083600200C36002010B5024BE7
:103A50001878FDF721FE10BD04F40020154B70B559
:103A60001A68002A22D0EFF3108172B6106800287D
:103A7000FCD0BFF35F8F00200F4A596010701B68A5
:103A8000BFF35F8F186081F31088002400250B4E70
:103A90003078FDF7F5FD002804D100240025290029
:103AA000200070BD3078FDF7F7FDF8E7FA24002517
:103AB000A400ECE7C4E2002005F4002004F4002098
:103AC00070B5040000200E0001F01EFB002836D067
:103AD000002001F02FFB002831D0FEF7D5FD002398
:103AE000184A12184B41802109068B4216D2164DF6
:103AF00028000BF069FA002821D0002001F004FB17
:103B000000280FD101200021404200F011FD0324C4
:103B1000644228000BF0D0F9200070BD01220B4B4D
:103B20005242E4E7002001F005FB0028EAD0210022
:103B30003200002001F008FB041EEAD1E7E703246D
:103B40006442E9E740420F00B8F30020FFFFFF7F27
:103B500010B5FEF799FD00230E4A12184B41802143
:103B600009068B4202D301220B4B52420B4C200020
:103B70000BF02AFA00280CD001200021404200F06E
:103B8000D7FC002001F02AFB0028F5D120000BF023
:103B900093F910BD40420F00FFFFFF7FB8F30020F4
:103BA000F8B5DE46574680B505000C00FEF76CFD03
:103BB0000023374A12184B41802109068B4202D359
:103BC0000122344B5242344908008A460BF0FCF97A
:103BD000002803D1C0BCBB46B246F8BD002001F0AE
:103BE00093FA00284AD00026002C43DD2B4B9B463D
:103BF00014E0A919002001F02BFB0700012000218F
:103C0000404200F095FC002001F0E8FAFEF73CFD90
:103C1000224BF61918605960B4422BDD002001F0E8
:103C200037FBA71B0200B84200DD3A00002AE0D1B2
:103C300001200021404200F07BFC002001F0CEFA80
:103C4000002001F061FA002814D0002001F020FBD0
:103C50000028E1D1FEF718FD5B460F001A685B688B
:103C6000002184460E4812184B419F4202D8D3D1FE
:103C70009445D1D950460BF01FF9ABE70020002145
:103C8000064B1860596050460BF016F9A2E7C04683
:103C900040420F00FFFFFF7FB8F30020D82900202B
:103CA00020A1070030B52B4C85B0002120000BF07F
:103CB00063F900281CD1284B1A68002A16D0EFF3AC
:103CC000108172B610680028FCD0BFF35F8F01240A
:103CD0002248596002781B68D2B20470BFF35F8F2C
:103CE0000020186081F31088002A17D005B030BD7D
:103CF00001200021404200F01BFC002001F01AFAD4
:103D0000050020000BF0D8F8002DEFD0144B1B68F5
:103D1000002BEBD0134A10689847E7E7FEF7EAF963
:103D20000400FEF7B1FCFA220023920012184B4166
:103D3000802109068B4202D301220B4B5242012102
:103D4000029100210191094920000091FEF758FAE3
:103D5000CCE7C046B8F30020C4E2002005F4002000
:103D6000083600200C360020FFFFFF7F5D3A001070
:103D7000D02310B51B0684B01C68FEF7BBF9FEF714
:103D80003BFBA04202D0002004B010BD2A4B002112
:103D900000201B7801F078FD28480368002B47D0ED
:103DA0000120FDF719FFFF23254C264920701840FC
:103DB000FDF78CFC20780121FDF750FC0520FDF774
:103DC00073FC002826D1082200211F48FFF7E2FBE0
:103DD000FEF790F90400FEF757FCFA220023920048
:103DE00012184B41802109068B4202D30122174B46
:103DF00052420121029100210191154920000091B8
:103E0000FEF7FEF90028BEDB12480121FFF708FD8E
:103E10000120B9E70120FDF7EFFB0B4B0100180073
:103E2000FDF75AFF002205200B49FDF779FCEBE76F
:103E3000FDF728FFB4E7C046E80C0110B8F30020F6
:103E400004F40020A53C0010C4E20020FFFFFF7F27
:103E50005D3A0010202200204D3A001000487047C3
:103E6000EC020110004870479802011010B50400E0
:103E700017480378002B20D0002C06D1154B16488C
:103E80004380063BFF3B038010BD052C19D8134B24
:103E9000A400E05812490123013804E001330A80EC
:103EA0000231142B0FD0C25C002AF7D1C022DBB242
:103EB0005B00920008481343E5E7112100F022F867
:103EC000DAE70020E0E7CA2303489B00DBE7C046AF
:103ED000DCF3002009040000E43F00208002011010
:103EE000E63F002010B5024800F0E0F810BDC046E3
:103EF000A8F2002010B508220149FFF751FB10BDC0
:103F0000A8F2002030B54B1E012900D1A7E0664A77
:103F100011780D092C0030349F2900D9A2E00470DB
:103F2000012B00D1BEE00F21147821400C00303469
:103F3000092900D998E04470022B00D1B2E05478EE
:103F40002509290030319F2C00D990E08170032B86
:103F500000D1A7E00F2121400C003034092900D9FD
:103F600087E0C470042B00D19CE0947825092900D7
:103F700030319F2C00D97FE00171052B00D191E0F9
:103F80000F2121400C003034092900D976E044711A
:103F9000062B00D186E0D4782509290030319F2CEA
:103FA00000D96EE08171072B00D17BE00F21214009
:103FB0000C003034092966D8C471082B00D171E097
:103FC00014792509290030319F2C5FD80172092B03
:103FD00068D00F2121400C003034092958D8447290
:103FE0000A2B5FD054792509290030319F2C52D8F3
:103FF00081720B2B56D00F2121400C00303409293F
:104000004BD8C4720C2B4DD094792509290030313E
:104010009F2C00D9073101730D2B43D00F21214074
:104020000C003034092901D937310C0044730E2BB0
:1040300038D0D1790C09220030329F2900D90732BB
:1040400082730F2B2ED00F220A4011003731092A1C
:1040500001D830321100C173102B23D0103000234F
:10406000037030BD07345AE737310C0063E707317E
:104070006CE737310C0074E707317DE737310C000E
:1040800085E707318EE737310C0095E707319DE76B
:1040900037310C00A3E70731AAE737310C00C472AF
:1040A0000C2BB1D1C018DAE7A8F2002010B588B007
:1040B00004000D2200216846FFF76CFA0D22002152
:1040C00004A8FFF767FA4B236A466846137004A9F1
:1040D0000D220AF0E9FE1521082220006944FFF7AD
:1040E0005FFA08B010BDC046F8B500F043F90C23E4
:1040F000194DFF22AB6705201849FDF711FB184C3D
:10410000402200212000FFF745FA40270023012626
:104110002121144A66702783A260136063545F31C3
:10412000618445396354104A10496360E26027870F
:10413000A1620B606362E2620AF0AEFE80239B051F
:104140002E64EB6490230A4A0120EA508022094B36
:104150005202DA64F8BDC046000011502507002065
:1041600010450020840010500001105080001050B5
:1041700010D001000020115010B501210520FDF7DD
:104180006DFA10BD10B500220021024800F012F9AE
:1041900010BDC04630450020044B1970002904D0E2
:1041A00080219023024A8902D1507047FBF30020FE
:1041B000002011500B785B0602D14B78052B00D004
:1041C00070478A78014B1A60FAE7C0460000115028
:1041D000F0B5C646C87800B58007830F1800012BDC
:1041E00060D08F780A794B797F213940FC091B0216
:1041F0004E001343334D32195201AA18977001270C
:104200006740577000275B055B0DD7701383D0762E
:10421000B846CA00012C32D02B4FBC468F016244F5
:10422000BC46AC446746BA6047461760002932D0A6
:10423000264AC90090466246414451603F223F33BE
:104240009343022837D0224937190A687F01D318CF
:104250000B602049EF19FA608B422ED8361976018F
:10426000AD19EB7E1C499B064A401343802212067F
:1042700013436A681360012080BCB846F0BD174F35
:10428000BC468F016244BC46AC446746BA624746AE
:104290001760002908D1002364012C196360104BBA
:1042A000E360E8E70020E7E70B4AC9009046624672
:1042B00041445162C2E75B00C5E7FEF7F7FBFA68CD
:1042C000CCE7C04610450020840010500400105078
:1042D000BCE20020FF0F1050000010508000105072
:1042E0000001105010B50AF0D7FD10BD10B57F20A9
:1042F0000C0020404000E409110000191A00034B93
:104300004001C01800F056F8012010BD10450020F3
:104310007F23180010B50840CA090B4203D1074992
:104320007D3B9B1A8B66400080188022044B400125
:104330000021C01812010AF077FE10BD00201150B4
:10434000104500207F22130010B50B400A4200D117
:1043500010BDC9095B005B1804485B01C01800234D
:1043600000220349C3700AF05FFEF1E71045002008
:10437000FFF7FFFF80220A4B520410B51A60094B69
:1043800009491A6010000B689843FBD18022002174
:1043900052010648FFF7FEF80922054B5A6710BD87
:1043A00000E0004000F0004008C000400000105055
:1043B00000001150002310B5C3820133828283763E
:1043C000016104000AF098FD002804D080219023A8
:1043D000074A8902D15020000AF0EEFD002802D0E1
:1043E0000123237710BD20000AF0F6FDFAE7C0464E
:1043F000002011507047C0467047C04600207047EB
:10440000002070477047C0467047C0467047C0469E
:104410007047C046024B5878431E9841C0B270475F
:104420000C300020024B18784007C00F7047C04680
:104430000C300020F0B5D6464F464646C0B5314B4D
:1044400007009A461B780E00FF2B01D0012044E0A4
:10445000002941D0002154222B48FFF79BF800226D
:104460002A4C2B4B20001A70FDF70CFC294B1C60CA
:10447000294C2000143CFDF721FC200001F00CFE2B
:10448000264B274D1C60274B002B2BD02800FFF715
:10449000B7FA254B2A781860244900248946224916
:1044A0000023884610E043461B6862019B18002BDE
:1044B00012D05B68002B0FD098472A780134E4B201
:1044C000511C2300A1420FDBA242ECD89B1A5B01D6
:1044D0004B445B68002BEFD10020E0BCBA46B146EC
:1044E000A846F0BD2A78D7E75346310038001F7040
:1044F000FFF7FAFD0028EFD03800FFF73DFE01205E
:10450000EBE7C046542200200C300020043000208D
:10451000FCF30020603000204C220020643000209A
:10452000FAF30020013A00105C2E0020A8030110CD
:10453000F0B5DE4657464E464546E0B5C84B91B00D
:1045400002931B78FF2B00D13EE1C64BC64E9B4623
:104550005F46C64B0DAC0193C54B009335686A6945
:10456000EFF3108172B61368002BFCD0BFF35F8F9E
:10457000A9612800210001F0BDFB6A69AB69BFF3A6
:104580005F8F0021116083F31088002800D11BE1A8
:104590006378082BE2D89B00FB589F466368002B8A
:1045A000DCD0A0689847D9E77F222179AF4D0A4037
:1045B0005300EB189846C809804440460123303028
:1045C00005799D430571057903339D430571002AE3
:1045D00000D100E14346A74A1B7D1278934200D3E5
:1045E000EFE0A54A5B011568ED18002D00D1EBE066
:1045F000A36862792078AD69A847AFE79F4A13782E
:10460000002B00D1E0E01378013BDBB2137013788C
:10461000002BA3D10122954D01212B7804201343B7
:104620002B703423EA5C8A43EA54EA5C8243EA54FE
:104630000133EA5C8A43EA54EA5C8243EA54237811
:1046400000209B4600F0A0FC602223791A40602ADB
:1046500000D1EFE0402A00D1F5E0DB06DB0E012BB4
:1046600000D113E1022B00D1C7E0002B00D0E1E024
:10467000202A00D11CE2002A00D0DBE06379092B5C
:1046800000D9D7E07E4A9B00D3589F46774D2B78C0
:10469000DB0700D462E7FFF7BBFE5FE7019BDB7837
:1046A000DB0700D45AE76068FFF7A6FE56E76F4DB8
:1046B0002B78DB0700D451E728780007C00FFFF7FD
:1046C000A5FE4BE723786A4999468B46694B6A49B0
:1046D00098468A4639001A7847460023B046002596
:1046E0004E46894610E053461B686A019B18002B12
:1046F00000D176E0DB68300098473A780135EDB2BA
:10470000511C2B008D4244DC9542ECD39B1A5B017B
:104710005B44EFE7237858499946564B8A469846BA
:104720003100BB464E461A7800250023474689468D
:104730000FE053461B686A019B18002B55D0DB68BD
:10474000300098473A780135EDB2511C2B008D426C
:1047500007DC9542EDD39B1A009A5B0194466344B3
:10476000EDE7019D542200212800FEF713FF1022DF
:10477000FF214448FEF70EFF28002022FF211430BD
:104780004E465F46FEF706FF00F0F4FBFFF73CFEE7
:10479000E4E6364D542200212800FEF7FBFE1022ED
:1047A000FF21281DFEF7F6FE28002022FF211430ED
:1047B00046464F46FEF7EEFE00F0DCFB2379AB7079
:1047C000CCE6501C984213DA11B0F0BCBB46B2469E
:1047D000A946A046F0BDA3686279207800F0E8FB06
:1047E000BCE646464F46214DE6E74E465F46CBE7E0
:1047F0001F4D9B1A5B015D19FAE67023217A0B426B
:1048000018D1C80982460F330B405B0098461948FF
:10481000EB1853441B7D00789946834266D21648B4
:104820005B01006881469944002A00D15FE14B4654
:10483000002B68D120780021FFF76AFD80212078C5
:10484000FFF766FD8AE6104800F09EFB01215846FE
:104850000EAAFFF7BBF8002800D07FE6EAE7C046C3
:104860005422002000030110643000200C3000208E
:10487000A8030110FAF300205C2E0020FCF30020B6
:104880002403011010300020CD390010237A0F2BA3
:10489000D0D8CF4AEB181B791578AB423ED3691CB0
:1048A0009942C7DB5D1BCB4B6D01ED18686900F0C9
:1048B0006BFB012158466B690EAA9847002800D06F
:1048C0004CE66022150023791D401A42B2D163796B
:1048D0000A3B012BAED800F057FB63790A2B00D1BD
:1048E00099E158460EA900F0D9FA37E6431C4B452A
:1048F00000DAF7E04B461B1A5B019946B548814444
:10490000002A00D1F3E04B46586900F03DFB4B46CE
:10491000012158465B690EAA98479CE7AE4A5B01A5
:104920001568ED18002DC1D184E7A37999466B78FD
:104930009945D6D06B78002B00D033E14B466B7095
:10494000002B00D12BE148460138C0B2FFF78AFAAC
:10495000002800D17EE143780793022B00D079E153
:104960000122C179B1468B11491113400A4030210F
:1049700012015B0113432A78A8468A4313432B7024
:1049800009239A4682445646BA46C37882781B0267
:104990001343C31805938E4B04938E4B08938E4B91
:1049A00009938E4B0A93059BB34200D855E1737867
:1049B00001220B2B03D13378F278F6187378042B8D
:1049C00000D044E1059B00279B1B9BB20693049BF0
:1049D0000B921D78002303931BE0099A7B01156855
:1049E000ED18002D00D132E1310058462B69069AAE
:1049F00098478446082803D9069A824200D313E1D7
:104A0000049B01371D78FFB26B1C03979F4200DDAA
:104A10001DE1BD42E1D8039B5D1B089B6D019C46D7
:104A20006544E1E76B780CAA023213705846012303
:104A30000EA900F049FA91E5E3881A0AD8B20F2AC4
:104A400000D9F7E666499300CB589F460EA800F0C0
:104A5000A1FA5846A179FFF795FB02222B78134360
:104A60002B707BE5E388012B00D0E3E608222B784E
:104A7000584693430EA92B7000F010FA6EE5022001
:104A800029780CAB9A1C8B068908DB0F01400B437D
:104A90001380584602230EA900F016FA5EE5E3885B
:104AA000012B00D0C6E608222B7813432B7018E7A1
:104AB000237A0F2B00D9BDE6EB181D79444B1B78E8
:104AC0009D4228D2444B6D011B685D19002D00D119
:104AD000B0E6686900F058FA012158466B690EAAE1
:104AE0009847B8E6002A00D0A4E6002399466279E8
:104AF0000220130003928343012B15D0002A00D01B
:104B000098E62B004344534430331B790CAA9B078F
:104B1000DB0F0232BCE75A1CAA4200DA8AE6ED1A21
:104B20002C4B6D01ED18D4E7E388002B12D1029BCA
:104B30001878039B012B23D0FFF7EAFB43460221A1
:104B4000EB18534430331A790A4301211A711A7948
:104B50000A431A714B46002B00D1FFE4586900F05C
:104B600013FA4B4601215B690EAA5846984700206C
:104B700000F00AFA3523EB5CDB0700D5EEE4B0E683
:104B8000FFF7E0FB43460221EB18534430331A7918
:104B90008A431A711A7903998A431A71DAE7FFF77F
:104BA00033FC9EE600215846FFF7F6FA5846FFF719
:104BB00099FBAB78074903930491054B0649984646
:104BC0001A780591002329001D008A461BE0C04683
:104BD000FAF30020A80301105C2E002020300020F2
:104BE0004C030110059B6A011B689B18002B4DD0DC
:104BF000DB685846984743461A780135EDB2511C98
:104C00002B008D422EDC9542ECD39B1A049A5B015B
:104C100094466344ECE70CAB9A1C584601230EA95A
:104C2000157000F051F999E40B9A012A4FD0002A2F
:104C30003CD00023B07804E00133DBB20F71934223
:104C400034D2C118C9B241440D79FF2DF4D04E467B
:104C50004546574600236B70ECE54E465746FFF736
:104C6000D1FB3EE65546542200212800FEF792FC77
:104C70001022FF21281DFEF78DFC28002022FF2195
:104C80001430FEF787FC039BAB7057E65546FAE7F6
:104C9000FEF798FE021E00D1CCE5D37891781B0276
:104CA0000B4358460EA900F00FF9D4E565463B00CA
:104CB0002A0031000A9800F08DFEAC46049B039A4E
:104CC0001B7866440133934200DB6CE6BFE7174B69
:104CD00029699942ADD1079AABE7FFF78FFB021E16
:104CE00000D1A7E5584613780EA900F0EDF8B2E51B
:104CF0002189FFF7BBF8021EF4D19BE5022A0FD0F1
:104D0000FFF77EFB021EC8D194E5FFF7A7F8021E4D
:104D100000D18FE5122358460EA900F0D5F89AE588
:104D2000FFF7A0F8021EB8D184E5C04695530010E5
:104D3000F8B557464E46DE4645460C00E0B516002F
:104D40001F00002A3CD01F4B00259A46702399462D
:104D50001D4B9B4617E05B462000997800F0FCFD58
:104D600000281FD021004046FFF732FA002819D052
:104D7000A378DA09012A1CD00A9A01351370237826
:104D8000E418B5421CDA6378052B0BD1E3789B0756
:104D90009B0FBB4206D153464A461B789846A378E0
:104DA0001A42D8D00020F0BCBB46B246A946A04665
:104DB000F8BD0B9A013513702378E418B542E2DB95
:104DC0000120F0E7542200200C300020702270B542
:104DD000094B0C001D788B781A4201D0002070BD61
:104DE000064B2000997800F0B7FD0028F6D021008E
:104DF0002800FFF7EDF9F2E7542200200C300020E4
:104E00000B007F2010B51840DB0934334000044A02
:104E1000C018044B1168C01800F05AFD10BDC04600
:104E2000603000200C3000200B007F2010B51840AF
:104E3000DB0934334000044AC018044B1168C01821
:104E400000F06EFD10BDC046603000200C30002028
:104E500070B57F240F480C4064000419CD09641913
:104E600030342079C00701D5002070BD0126257996
:104E70000948354300782571FFF738FA0028F4D146
:104E800001222379934323712379033293432371BE
:104E9000EAE7C0460C3000205422002070B5094CCF
:104EA0000600082220000D00FEF77AFB0023802177
:104EB000E360A3602B783000994300220023FFF7C2
:104EC000C7FF70BDEC2F0020F8B5CE464746904690
:104ED000264E80B58146082230000D001F00FEF7E7
:104EE0005FFB4346B3600023F381EC79AB79240286
:104EF0001C43231CBC4200D93B1C9FB2B381002C35
:104F00000ED0002F18D04346002B2CD03B1C402F36
:104F10001BD89FB233787F2B1CD80021144A0FE096
:104F200080212B780022994348460023FFF790FF09
:104F3000C0BCB946B046F8BD7F2300223178994302
:104F40003B004846FFF784FFF2E740239FB23378E7
:104F50007F2BE2D9064C3A0041462000FEF720FBA9
:104F600080212200ECE70020E2E7C046EC2F002081
:104F7000AC2F002010B5142200210248FEF70AFBD6
:104F800010BDC046EC2F0020014B18617047C04691
:104F9000EC2F002010B5054C010008222000FEF780
:104FA000FFFA0023A360E36010BDC046EC2F002091
:104FB00070B5384C1D0023780600DA09C9098A4209
:104FC00010D00020002D00D070BD21003000FFF770
:104FD000F1F82369002B03D0220003213000984709
:104FE0000120F1E7A0687F2B05D8002834D02A00E3
:104FF0002949FEF7D5FAE289A1685219E38892B2ED
:105000004919E281A160934214D03F2D12D9A3899E
:10501000981A051C80B240282AD82078ADB27F2883
:1050200028D800219A4232D01B4A2B003000FFF7CB
:105030000FFFC9E72369002B05D0220002213000B1
:10504000984700280AD08021237800229943300015
:105050000023FFF7FDFEB7E70020B5E70021300091
:10506000FFF756F930008021FFF752F90120ABE736
:105070004025D2E79A4207D0074C2A002000FEF7CD
:105080008FFA80212200D0E780210022CDE7002284
:10509000CBE7C046EC2F0020AC2F002070B50500F8
:1050A000FFF7B8F9002800D170BDFFF7BBF9002861
:1050B000FAD1C8236B43124CE618F1780029F3D0DB
:1050C00010331C19200000F0FFFD3F28ECD9002010
:1050D000F178FFF795FE0028E6D0200000F0F4FDFF
:1050E0003F2808D9074BEA01D218F1784023002065
:1050F000FFF7AEFED8E7F1780020FFF795FED3E783
:10510000E42E0020602E002010B50400FFF782F985
:10511000002801D1002010BDFFF784F90028F9D143
:10512000C8226243024B01309B181B791840F2E7FA
:10513000E42E0020C82310B543430248181800F09D
:10514000A5FD10BDF42E0020F0B5C824C64680236E
:1051500044431F4F1034050000B53C195B029A42CE
:1051600000D31C4A200092B200F012FE8046FFF7E6
:1051700051F9002803D1404680BCB846F0BDFFF786
:1051800051F90028F7D1C8266E43BE19F378002BD9
:10519000F1D0200000F098FD3F28ECD90020F178F4
:1051A000FFF72EFE0028E6D0200000F08DFD3F28FE
:1051B00008D9094BEA01D218F17840230020FFF703
:1051C00047FED8E7F1780020FFF72EFED3E7C04670
:1051D000E42E0020FFFF0000602E0020F8B506003E
:1051E000FFF718F9002801D10020F8BDFFF71AF9E0
:1051F0000028F9D1C82474432500134F2435ED1934
:10520000280000F043FD0028EED03F190020B978B7
:10521000FFF7F6FD0028E7D00C4BF401E41821005D
:105220002800402200F0B4FDB978051E08D0030024
:1052300022000020FFF70CFE0028D5D02800D4E77C
:105240000020FFF7F1FDCFE7E42E0020A02E002084
:1052500070B5C82444430C4B0500E41880235B025E
:105260009A4200D3094A200092B200F059FE06008B
:10527000200000F00BFD3F2801D8300070BD280051
:10528000FFF7ACFFF9E7C046082F0020FFFF000042
:10529000C82310B543430248181800F015FD10BD8F
:1052A000082F0020F0B50025184C83B0C82200213B
:1052B0002000FEF76FF9164B21001D70FF2363716C
:1052C000E1235B02A360200008234022A37338314E
:1052D0000095073B103000F0A3FC270001232100BC
:1052E00020002600402278310093B837243000F0A7
:1052F00097FCC0363800FCF7C5FC3000FCF7C2FC58
:10530000E56127622663656303B0F0BDE42E0020EB
:10531000E02E00200B4B196B00290AD01A6A002AD4
:105320000DD000221A621A63DA6100225A6301204A
:1053300070471A6A002AFAD0D9611962F7E71A632E
:10534000F3E7C046E42E002070B50F4C0522002183
:105350002000FEF71FF90D4D2B78DA0707D50C4C0E
:105360009B070CD50121200000F0B6FE70BD200087
:10537000103000F091FE2B78054C9B07F2D42000F2
:1053800000F08AFEEEE7C046E42E0020E02E00206A
:10539000082F0020F0B54B79060083B0022B02D114
:1053A0008B79022B03D00025280003B0F0BD214FDC
:1053B000BB78002BF7D18B7809253B700C780C1942
:1053C0006378242B0BD1082A02D80FE0AA420DD310
:1053D0002378E4185D196378ADB2242BF6D0052B41
:1053E00008D0042B02D163790A2B11D00020FFF7DB
:1053F00055FED9E721003000FFF7E8FC0028D2D0A5
:10540000A3787B7023785D19E4186378ADB2E8E780
:10541000094B2778019301330093022202233000C5
:10542000E119FFF785FC0028BDD00E35ED19ADB2AE
:10543000DCE7C046E42E0020E62E0020F8B560230D
:1054400014001278050013400020202B07D1304AA9
:105450006379277916781B023B439E4200D0F8BD42
:105460006378222B1AD007D8202B34D0212BF6D1E9
:1054700001293ED00120F2E7232BF0D1012940D0B1
:105480000329F7D1234B002BF4D0E178A37809024C
:105490000020194300E000BF0120E0E7012930D0DF
:1054A0000329E7D101252E00A378E47802392402EC
:1054B0001C431471264024321000714000F00CFE91
:1054C000154B002BD6D06208002031002A4000E0A6
:1054D00000BF0120C3E701290BD00329CAD10F4B1C
:1054E000002BC7D0083200201100FEF78FFA0120F0
:1054F000B5E7072321002800094AFFF7E5FC012052
:10550000ADE721002800FFF7C9FC0120A7E7C0464E
:10551000E42E002000000000000000000D3A001002
:10552000EC2E0020F0B54F464646D646364DC0B567
:10553000EA781F0080460C00AB788A423BD08B4251
:1055400010D00020E0BCBA46B146A846F0BD2F4BB3
:10555000002B04D02E4800F0AFFB002851D00020D3
:10556000FFF79CFDAB78A34201D00120EAE7294B6D
:10557000002B02D0002000E000BF0020FFF72EFE2D
:105580000028F2D1244C200000F080FB0028ECD150
:10559000002FEAD0BF06E8D1243C4046A178FFF7AF
:1055A0002FFC0028E1D0002300224046A178FFF71D
:1055B0004FFC0120C6E710239A46184EAA4431003A
:1055C0005046BAB200F0ACFC154B002BBFD06B7943
:1055D000FF2BBCD0002FBAD0F219914603E0013660
:1055E000B145B4D06B7932789A42F8D1504600F088
:1055F00063FB0028F3D15346103B597900E000BF0C
:10560000EDE700E000BFAAE7E42E00200000000064
:10561000F42E002000000000082F0020602E002043
:10562000000000009322F0B5134C85B0002120004B
:105630009200FDF7AFFF23002000802640270F4D8A
:105640004D337600FF33293002950093002200236A
:10565000002103970196FF3000F0D6F94035201D58
:10566000283400230122002103970295019600941B
:1056700000F0CAF905B0F0BDB03100203031002093
:1056800010B5054C200000F0F5F920002538FF3852
:1056900000F0F0F9012010BDD832002070B5084CA0
:1056A000002520003130FF30257000F0F5FC20008F
:1056B0000C3000F0F1FC2A23FF33E554657170BD16
:1056C000B0310020F8B557464546DE464E46E0B5B7
:1056D0004B7980460F00FF2B27D1424B0C7899461F
:1056E0002A234946FF33CB5C002B1ED14E79002E76
:1056F0001BD1BB783C190B703B79002B12D098233F
:105700005B004B449A460C234B449B46A518637898
:10571000052B05D110E02378E4186378052B0BD016
:10572000A542F8D8E01B80B200E00020F0BCBB46E8
:10573000B246A946A046F8BDA542F3D9210040468D
:10574000FFF744FB0028F0D0A3780136F6B2DB095E
:10575000012B29D0504600F09FFC2A234946A2780D
:10576000FF33CA54637922791B0213431E4A5B0537
:1057700094465B0D942163445A4253414A460220A9
:105780004900525C5B00824313434A4653545146DE
:105790004046083900F0D6F90028C6D02378E4182E
:1057A0003B79B342B3D8BDE7584600F075FC5A4682
:1057B000A3780C3A5371637921791B020B430A4990
:1057C0005B058C465B0D634459424B4102201179C5
:1057D0005B0081430B43594600200839137100F0E8
:1057E0007FF9DBE7B031002000FEFFFF70B5050058
:1057F0002A201F4CFF30205C1E006379884203D0B2
:1058000000208B421DD070BD9A235B00E35A002B11
:105810000DD1184B002B04D000201749B2B200E084
:1058200000BF2800154900F08DF90120EBE72000AA
:10583000962331305B00E158B2B2FF3000F070FBCC
:10584000E7E70F4B002B04D031040020090C00E0E7
:1058500000BF0C4C2800210000F042F90028E4D1E0
:1058600032002100280000F007F90120CBE7C046F4
:10587000B03100200000000030310020D83200207C
:1058800000000000B431002000B5030083B00029FF
:1058900010D00020012B07D80A78002A04D00B482A
:1058A000C2540120012A01D003B000BD1800FEF748
:1058B000C1FDF9E7012301A900200B80FEF7BAFD25
:1058C0000028F1D00122014B1A70EDE700300020D2
:1058D000037870B5DB0704000E00DD0F002B17D135
:1058E00003785B0701D5280070BD012130004942D3
:1058F00009F052FB2378DB07DD0F002B0AD1237858
:105900005B0708D40422237801251343237002E0A7
:105910000025E8E70025300009F0CEFAE3E7C046AD
:1059200070B50C00012106004942200009F034FB4B
:1059300033785B07DD0F002B04DB200009F0BCFA95
:10594000280070BD3378DB0704D4042233789343F6
:105950003370F2E70025F0E7437902791B02134325
:10596000C2785B0592075B0D920F022A1DD0032AB5
:105970000CD00020012A08D102394A425141124A72
:105980009446614499424041C0B2704702394A1E70
:1059900091410E4A494211408022D2009446002093
:1059A000614499424041C0B2EFE7022905D000208E
:1059B00040229A424041C0B2E7E7054A9818434264
:1059C0005841C0B2E1E7C046FF03000040FCFFFFC2
:1059D00000FEFFFF8A1870B5914207D27F264C78EF
:1059E000052C04D00C7809198A42F8D870BD34000F
:1059F0008D782C4064000419ED0963550C78091961
:105A00008A42ECD8F2E7C046F0B5C64600B582B08F
:105A1000150008AA40CA040017880BAA12880120A2
:105A200090460A00217802408143200011432170F2
:105A30003A00009331000123083000F0F1F8002E05
:105A400001D0002F08D10A9B012063604346638088
:105A500002B080BCB846F0BD26001C363000FCF712
:105A600011F90023002D01D0330000266361A661E7
:105A7000E9E7C04601207047F8B502240B7807001B
:105A80001C4063425C41144B64421C40134B0800B1
:105A90009C4608300D001600644400F0F7F800281A
:105AA00007D1002E05D0344203D101242B781C42AB
:105AB00001D00020F8BD38006978FFF7A1F900286F
:105AC000F7D02B781C42F4D10023002238006978EB
:105AD000FFF7BEF9EEE7C04640FEFFFFFF01000002
